{
  "_format": "hh-sol-artifact-1",
  "contractName": "HfiPayEscrow",
  "sourceName": "contracts/HfiPayEscrow.sol",
  "abi": [
    {
      "anonymous": false,
      "inputs": [
        {
          "indexed": true,
          "internalType": "uint256",
          "name": "id",
          "type": "uint256"
        },
        {
          "indexed": true,
          "internalType": "address",
          "name": "recipient",
          "type": "address"
        }
      ],
      "name": "PaymentClaimed",
      "type": "event"
    },
    {
      "anonymous": false,
      "inputs": [
        {
          "indexed": true,
          "internalType": "uint256",
          "name": "id",
          "type": "uint256"
        },
        {
          "indexed": true,
          "internalType": "address",
          "name": "sender",
          "type": "address"
        },
        {
          "indexed": true,
          "internalType": "address",
          "name": "recipient",
          "type": "address"
        },
        {
          "indexed": false,
          "internalType": "uint256",
          "name": "amount",
          "type": "uint256"
        }
      ],
      "name": "PaymentCreated",
      "type": "event"
    },
    {
      "anonymous": false,
      "inputs": [
        {
          "indexed": true,
          "internalType": "uint256",
          "name": "id",
          "type": "uint256"
        },
        {
          "indexed": true,
          "internalType": "address",
          "name": "sender",
          "type": "address"
        }
      ],
      "name": "PaymentRefunded",
      "type": "event"
    },
    {
      "inputs": [],
      "name": "CLAIM_PERIOD",
      "outputs": [
        {
          "internalType": "uint256",
          "name": "",
          "type": "uint256"
        }
      ],
      "stateMutability": "view",
      "type": "function"
    },
    {
      "inputs": [
        {
          "internalType": "uint256",
          "name": "paymentId",
          "type": "uint256"
        }
      ],
      "name": "claimPayment",
      "outputs": [],
      "stateMutability": "nonpayable",
      "type": "function"
    },
    {
      "inputs": [
        {
          "internalType": "address",
          "name": "recipient",
          "type": "address"
        }
      ],
      "name": "createPayment",
      "outputs": [],
      "stateMutability": "payable",
      "type": "function"
    },
    {
      "inputs": [
        {
          "internalType": "uint256",
          "name": "paymentId",
          "type": "uint256"
        }
      ],
      "name": "getPayment",
      "outputs": [
        {
          "components": [
            {
              "internalType": "uint256",
              "name": "id",
              "type": "uint256"
            },
            {
              "internalType": "address",
              "name": "sender",
              "type": "address"
            },
            {
              "internalType": "address",
              "name": "recipient",
              "type": "address"
            },
            {
              "internalType": "uint256",
              "name": "amount",
              "type": "uint256"
            },
            {
              "internalType": "uint256",
              "name": "createdAt",
              "type": "uint256"
            },
            {
              "internalType": "uint256",
              "name": "expiry",
              "type": "uint256"
            },
            {
              "internalType": "bool",
              "name": "claimed",
              "type": "bool"
            },
            {
              "internalType": "bool",
              "name": "refunded",
              "type": "bool"
            }
          ],
          "internalType": "struct HfiPayEscrow.Payment",
          "name": "",
          "type": "tuple"
        }
      ],
      "stateMutability": "view",
      "type": "function"
    },
    {
      "inputs": [],
      "name": "nextPaymentId",
      "outputs": [
        {
          "internalType": "uint256",
          "name": "",
          "type": "uint256"
        }
      ],
      "stateMutability": "view",
      "type": "function"
    },
    {
      "inputs": [
        {
          "internalType": "uint256",
          "name": "",
          "type": "uint256"
        }
      ],
      "name": "payments",
      "outputs": [
        {
          "internalType": "uint256",
          "name": "id",
          "type": "uint256"
        },
        {
          "internalType": "address",
          "name": "sender",
          "type": "address"
        },
        {
          "internalType": "address",
          "name": "recipient",
          "type": "address"
        },
        {
          "internalType": "uint256",
          "name": "amount",
          "type": "uint256"
        },
        {
          "internalType": "uint256",
          "name": "createdAt",
          "type": "uint256"
        },
        {
          "internalType": "uint256",
          "name": "expiry",
          "type": "uint256"
        },
        {
          "internalType": "bool",
          "name": "claimed",
          "type": "bool"
        },
        {
          "internalType": "bool",
          "name": "refunded",
          "type": "bool"
        }
      ],
      "stateMutability": "view",
      "type": "function"
    },
    {
      "inputs": [
        {
          "internalType": "uint256",
          "name": "paymentId",
          "type": "uint256"
        }
      ],
      "name": "refundPayment",
      "outputs": [],
      "stateMutability": "nonpayable",
      "type": "function"
    }
  ],
  "bytecode": "0x608060405234801561001057600080fd5b506112a5806100206000396000f3fe6080604052600436106100705760003560e01c80639b22b9201161004e5780639b22b92014610121578063c63fdcc71461014c578063e93512e214610175578063f63813f41461019157610070565b806321241dfe146100755780633280a836146100a057806387d81789146100dd575b600080fd5b34801561008157600080fd5b5061008a6101ba565b6040516100979190610bbc565b60405180910390f35b3480156100ac57600080fd5b506100c760048036038101906100c29190610c08565b6101c1565b6040516100d49190610d42565b60405180910390f35b3480156100e957600080fd5b5061010460048036038101906100ff9190610c08565b6102f9565b604051610118989796959493929190610d7c565b60405180910390f35b34801561012d57600080fd5b5061013661039b565b6040516101439190610bbc565b60405180910390f35b34801561015857600080fd5b50610173600480360381019061016e9190610c08565b6103a1565b005b61018f600480360381019061018a9190610e26565b6105e6565b005b34801561019d57600080fd5b506101b860048036038101906101b39190610c08565b6108a3565b005b62093a8081565b6101c9610b2e565b6001600083815260200190815260200160002060405180610100016040529081600082015481526020016001820160009054906101000a900473ffffffffffffffffffffffffffffffffffffffff1673ffffffffffffffffffffffffffffffffffffffff1673ffffffffffffffffffffffffffffffffffffffff1681526020016002820160009054906101000a900473ffffffffffffffffffffffffffffffffffffffff1673ffffffffffffffffffffffffffffffffffffffff1673ffffffffffffffffffffffffffffffffffffffff1681526020016003820154815260200160048201548152602001600582015481526020016006820160009054906101000a900460ff161515151581526020016006820160019054906101000a900460ff1615151515815250509050919050565b60016020528060005260406000206000915090508060000154908060010160009054906101000a900473ffffffffffffffffffffffffffffffffffffffff16908060020160009054906101000a900473ffffffffffffffffffffffffffffffffffffffff16908060030154908060040154908060050154908060060160009054906101000a900460ff16908060060160019054906101000a900460ff16905088565b60005481565b60006001600083815260200190815260200160002090508060020160009054906101000a900473ffffffffffffffffffffffffffffffffffffffff1673ffffffffffffffffffffffffffffffffffffffff163373ffffffffffffffffffffffffffffffffffffffff161461044a576040517f08c379a000000000000000000000000000000000000000000000000000000000815260040161044190610eb0565b60405180910390fd5b8060060160009054906101000a900460ff161561049c576040517f08c379a000000000000000000000000000000000000000000000000000000000815260040161049390610f1c565b60405180910390fd5b8060060160019054906101000a900460ff16156104ee576040517f08c379a00000000000000000000000000000000000000000000000000000000081526004016104e590610f88565b60405180910390fd5b60018160060160006101000a81548160ff0219169083151502179055508060020160009054906101000a900473ffffffffffffffffffffffffffffffffffffffff1673ffffffffffffffffffffffffffffffffffffffff166108fc82600301549081150290604051600060405180830381858888f19350505050158015610579573d6000803e3d6000fd5b508060020160009054906101000a900473ffffffffffffffffffffffffffffffffffffffff1673ffffffffffffffffffffffffffffffffffffffff16827f68e025580f9927563397b7ace79c220c87b74dc551093ed5064fff4049990b7560405160405180910390a35050565b600073ffffffffffffffffffffffffffffffffffffffff168173ffffffffffffffffffffffffffffffffffffffff1603610655576040517f08c379a000000000000000000000000000000000000000000000000000000000815260040161064c90610ff4565b60405180910390fd5b60003411610698576040517f08c379a000000000000000000000000000000000000000000000000000000000815260040161068f90611060565b60405180910390fd5b60405180610100016040528060005481526020013373ffffffffffffffffffffffffffffffffffffffff1681526020018273ffffffffffffffffffffffffffffffffffffffff16815260200134815260200142815260200162093a80426106ff91906110af565b81526020016000151581526020016000151581525060016000805481526020019081526020016000206000820151816000015560208201518160010160006101000a81548173ffffffffffffffffffffffffffffffffffffffff021916908373ffffffffffffffffffffffffffffffffffffffff16021790555060408201518160020160006101000a81548173ffffffffffffffffffffffffffffffffffffffff021916908373ffffffffffffffffffffffffffffffffffffffff160217905550606082015181600301556080820151816004015560a0820151816005015560c08201518160060160006101000a81548160ff02191690831515021790555060e08201518160060160016101000a81548160ff0219169083151502179055509050508073ffffffffffffffffffffffffffffffffffffffff163373ffffffffffffffffffffffffffffffffffffffff166000547fbca8aeacf1f38658b18930496eecdc82575bb54ced59ae5ddea3c2a221bc19aa346040516108819190610bbc565b60405180910390a460008081548092919061089b906110e3565b919050555050565b60006001600083815260200190815260200160002090508060010160009054906101000a900473ffffffffffffffffffffffffffffffffffffffff1673ffffffffffffffffffffffffffffffffffffffff163373ffffffffffffffffffffffffffffffffffffffff161461094c576040517f08c379a000000000000000000000000000000000000000000000000000000000815260040161094390611177565b60405180910390fd5b80600501544211610992576040517f08c379a0000000000000000000000000000000000000000000000000000000008152600401610989906111e3565b60405180910390fd5b8060060160009054906101000a900460ff16156109e4576040517f08c379a00000000000000000000000000000000000000000000000000000000081526004016109db90610f1c565b60405180910390fd5b8060060160019054906101000a900460ff1615610a36576040517f08c379a0000000000000000000000000000000000000000000000000000000008152600401610a2d9061124f565b60405180910390fd5b60018160060160016101000a81548160ff0219169083151502179055508060010160009054906101000a900473ffffffffffffffffffffffffffffffffffffffff1673ffffffffffffffffffffffffffffffffffffffff166108fc82600301549081150290604051600060405180830381858888f19350505050158015610ac1573d6000803e3d6000fd5b508060010160009054906101000a900473ffffffffffffffffffffffffffffffffffffffff1673ffffffffffffffffffffffffffffffffffffffff16827f515a18b1fcc21296047a050786b19a82acc044529bbdf44eb81b7488b611062360405160405180910390a35050565b60405180610100016040528060008152602001600073ffffffffffffffffffffffffffffffffffffffff168152602001600073ffffffffffffffffffffffffffffffffffffffff1681526020016000815260200160008152602001600081526020016000151581526020016000151581525090565b6000819050919050565b610bb681610ba3565b82525050565b6000602082019050610bd16000830184610bad565b92915050565b600080fd5b610be581610ba3565b8114610bf057600080fd5b50565b600081359050610c0281610bdc565b92915050565b600060208284031215610c1e57610c1d610bd7565b5b6000610c2c84828501610bf3565b91505092915050565b610c3e81610ba3565b82525050565b600073ffffffffffffffffffffffffffffffffffffffff82169050919050565b6000610c6f82610c44565b9050919050565b610c7f81610c64565b82525050565b60008115159050919050565b610c9a81610c85565b82525050565b61010082016000820151610cb76000850182610c35565b506020820151610cca6020850182610c76565b506040820151610cdd6040850182610c76565b506060820151610cf06060850182610c35565b506080820151610d036080850182610c35565b5060a0820151610d1660a0850182610c35565b5060c0820151610d2960c0850182610c91565b5060e0820151610d3c60e0850182610c91565b50505050565b600061010082019050610d586000830184610ca0565b92915050565b610d6781610c64565b82525050565b610d7681610c85565b82525050565b600061010082019050610d92600083018b610bad565b610d9f602083018a610d5e565b610dac6040830189610d5e565b610db96060830188610bad565b610dc66080830187610bad565b610dd360a0830186610bad565b610de060c0830185610d6d565b610ded60e0830184610d6d565b9998505050505050505050565b610e0381610c64565b8114610e0e57600080fd5b50565b600081359050610e2081610dfa565b92915050565b600060208284031215610e3c57610e3b610bd7565b5b6000610e4a84828501610e11565b91505092915050565b600082825260208201905092915050565b7f4e6f7420726563697069656e7400000000000000000000000000000000000000600082015250565b6000610e9a600d83610e53565b9150610ea582610e64565b602082019050919050565b60006020820190508181036000830152610ec981610e8d565b9050919050565b7f416c726561647920636c61696d65640000000000000000000000000000000000600082015250565b6000610f06600f83610e53565b9150610f1182610ed0565b602082019050919050565b60006020820190508181036000830152610f3581610ef9565b9050919050565b7f526566756e646564000000000000000000000000000000000000000000000000600082015250565b6000610f72600883610e53565b9150610f7d82610f3c565b602082019050919050565b60006020820190508181036000830152610fa181610f65565b9050919050565b7f496e76616c696420726563697069656e74000000000000000000000000000000600082015250565b6000610fde601183610e53565b9150610fe982610fa8565b602082019050919050565b6000602082019050818103600083015261100d81610fd1565b9050919050565b7f4e6f204554482073656e74000000000000000000000000000000000000000000600082015250565b600061104a600b83610e53565b915061105582611014565b602082019050919050565b600060208201905081810360008301526110798161103d565b9050919050565b7f4e487b7100000000000000000000000000000000000000000000000000000000600052601160045260246000fd5b60006110ba82610ba3565b91506110c583610ba3565b92508282019050808211156110dd576110dc611080565b5b92915050565b60006110ee82610ba3565b91507fffffffffffffffffffffffffffffffffffffffffffffffffffffffffffffffff82036111205761111f611080565b5b600182019050919050565b7f4e6f742073656e64657200000000000000000000000000000000000000000000600082015250565b6000611161600a83610e53565b915061116c8261112b565b602082019050919050565b6000602082019050818103600083015261119081611154565b9050919050565b7f4e6f742065787069726564000000000000000000000000000000000000000000600082015250565b60006111cd600b83610e53565b91506111d882611197565b602082019050919050565b600060208201905081810360008301526111fc816111c0565b9050919050565b7f416c726561647920726566756e64656400000000000000000000000000000000600082015250565b6000611239601083610e53565b915061124482611203565b602082019050919050565b600060208201905081810360008301526112688161122c565b905091905056fea2646970667358221220919a767fb1bdc0b51697d9c6026abf5862c6040a95c9936bf460e3ec33be3b3d64736f6c63430008180033",
  "linkReferences": {},
  "deployedLinkReferences": {}
}